:020000040000FA
:10000000C002001061010000690100006B010000E6
:100010006D0100006F010000710100000000000090
:10002000000000000000000000000000730100005C
:10003000750100000000000077010000CD02000003
:100040007B0100007B0100007B0100007B010000C0
:100050007B010000450400007B0100007B010000E3
:100060007B0100007B0100007B0100007B010000A0
:100070007B0100007B0100007B0100007B01000090
:100080007B0100007B0100007B0100007B01000080
:100090007B0100007B0100007B0100007B01000070
:1000A0007B0100007B0100007B0100007B01000060
:1000B0007B0100007B0100007B0100007B01000050
:1000C0007B01000000F002F800F03AF80AA090E886
:1000D000000C82448344AAF10107DA4501D100F003
:1000E0002FF8AFF2090EBAE80F0013F0010F18BF96
:1000F000FB1A43F0010318473C0700005C070000AF
:10010000103A24BF78C878C1FAD8520724BF30C843
:1001100030C144BF04680C60704700000023002415
:1001200000250026103A28BF78C1FBD8520728BF07
:1001300030C148BF0B6070471FB51FBD10B510BD63
:1001400000F02FF81146FFF7F7FF00F099F900F0E3
:100150004DF803B4FFF7F2FF03BC00F055F80000C0
:100160000948804709480047FEE7FEE7FEE7FEE74B
:10017000FEE7FEE7FEE7FEE7FEE7FEE70448054987
:10018000034A054B7047000001030000C500000052
:10019000C0000010C0020010C0000010704770477F
:1001A0007047754600F02CF8AE4605006946534688
:1001B00020F00700854618B020B5FFF7DFFFBDE847
:1001C00020404FF000064FF000074FF000084FF0BE
:1001D000000B21F00701AC46ACE8C009ACE8C0094F
:1001E000ACE8C009ACE8C0098D46704710B50446BC
:1001F000AFF300802046BDE81040FFF7AABF000023
:10020000004870476000001001491820ABBEFEE7AF
:10021000260002007047000030B1012806D00228F5
:1002200006D0032806D0FEE7044804E0044802E0B4
:10023000044800E004480068704700000400001013
:10024000080000100C000010100000104FF0E0211A
:100250000128086903D020F001000861704740F0D0
:100260000100FAE74FF0E0210128086903D020F0EF
:1002700002000861704740F00200FAE72DE9F04102
:1002800007464FF47A760020FFF7C6FF0446B0FB1E
:10029000F6F04FF08071B1FBF0F000F00BFA05467C
:1002A000384600F007FA294600F092FA00D2FEE73D
:1002B0004FF0E020016941F004010161B4FBF6F167
:1002C0007943491E4161BDE8F081000002480168A0
:1002D000491C0160704700000000001004490A7DBD
:1002E0009206FCD50870486840F0020048607047EC
:1002F00000C000400000000000000000FFFFFFFF02
:10030000214810B52121C0F8A01100BFD0F8A011DC
:100310004906FBD50121C0F80C110922C0F8842040
:10032000C0F88010AA22C0F88C205523C0F88C3069
:10033000D0F888406405FBD52324C0F8A440C0F859
:10034000A010C0F8AC20C0F8AC3000BFD0F8A82096
:100350005205FBD540F20112C0F8042140F20122FF
:10036000C0F80821C0F800110221C0F8A8110749FF
:10037000C0F8C4105110C0F8C81145F23A0101602C
:1003800003490020086010BD00C00F40DE8728042C
:1003900008ED00E0224A52F8C43F43F0080313601E
:1003A000204B01229A60DA600A2820D2DFE800F0B0
:1003B0001F05080B0E1114171A1D4FF4166116E0D5
:1003C0004FF4965113E04FF4165110E04FF4615181
:1003D0000DE04FF496410AE04FF4164107E04DF668
:1003E000C02104E04FF4614101E04FF4E1310E48D7
:1003F000802202730D4A12681209B2FBF1F10A0A57
:10040000027101700321017305214160872101728E
:100410004FF0E0212020C1F80001002070470000CB
:1004200000C00F4000C0024000C0004008000010A3
:1004300000B5034602E05B1CFFF750FF1878002868
:10044000F9D100BD0D480AE001F00E0102290BD0E0
:1004500004290DD0062901D00C2909D0017D81681D
:10046000C9B2CA07F0D07047416821F0020102E02A
:10047000416821F001014160F1E7000000C0004047
:10048000124D114828601248A86112482863FFF7EE
:1004900037FF1149082008660120FFF7EFFE012011
:1004A000FFF7E0FE0120FFF7D1FE0920FFF772FF02
:1004B0005FF0000404EB440055F830008047641CF2
:1004C000E4B2032CF6D3F3E7DD04000018000010BB
:1004D00059050000FD05000000800920F0B51B4B08
:1004E0001B481C4A1C690068002124B1292C07D034
:1004F0002B2C29D118E003F10805292485E81300E5
:10050000D3E90245061B61EB05044FF47A77002519
:10051000BE1BA54118D2D46F44F00804D46703F180
:1005200008052B2485E81300D3E90245061B61EB7F
:1005300005044FF47A770025BE1BA54104D2946FC1
:1005400044F008049467D6E7F0BD000018000010DE
:10055000000000100080092070B51C4D1C4E0024C6
:10056000A86A20B136280AD038282ED11BE019A05D
:10057000FFF75EFF3068C5E908043620A862D5E9B8
:10058000081230684FF47A73411A64EB02000022BB
:10059000591A824119D213A0FFF74AFF3068C5E902
:1005A00008043820A862D5E908123068431A64EBC1
:1005B00002004FF47A720021D21A814105D20E480E
:1005C000816F41F008018167D1E770BD180000100C
:1005D0000000001074686973206973204D5347311F
:1005E0000D0A00007468697320697320616162629A
:1005F00063630D0A000000000080092070B51C4DE7
:100600001C4E0024286C20B143280AD045282ED146
:100610001BE019A0FFF70CFF3068C5E90E0443206A
:100620002864D5E90E12306840F2DC53411A64EBBD
:1006300002000022591A824119D213A0FFF7F8FED6
:100640003068C5E90E0445202864D5E90E123068EB
:10065000431A64EB02004FF4FA720021D21A81416E
:1006600005D20D48816F41F008018167D1E770BD67
:10067000180000100000001074686973206973206E
:100680006D650D0A000000007468697320697320AD
:1006900068650D0A0000000000800920401058BF66
:1006A000C0F14040491058BFC1F140418142EFF3D1
:1006B00000807047B0FA80F310FA03F2C3F19D0393
:1006C0000AD0D90501EB1220530638BF704700F15C
:1006D000010008BF20F001007047000050EA010C43
:1006E00000F113801CF5000F58BFBCF5000F01D4BA
:1006F0008842704707D710F5000F58BF11F5000F5B
:1007000015D488427047894270471CF5000F04D504
:10071000BCF5000FF7D5814270474FF0807C1CEB91
:10072000400F38BF1CEB410F01D28142704710B51A
:1007300000F008F8922449004FF000504FF080512B
:10074000FFF7ACBF0EF1020E2EF0030E5EF8044B65
:10075000244204D44FEA4102B2F17F4F11D84FEA4C
:100760004003B3F17F4F0CD80ED14FEAD07CB2F1E9
:100770007F4F0CEB4C0C0CF1020C08BF4CEBD17C06
:1007800004E04FF0080C01E04FEAD17C0CEB4C0385
:1007900024FA03F404F00704B4F1040C06D20EEBBF
:1007A000840CBDE810404CF0010C6047DFE80CF011
:1007B000070802024FF00040A0F5800010BD084677
:1007C000420018BFD2F1807288BF00F0004010BD17
:1007D00051EA000C00F113801CF5000F58BFBCF566
:1007E000000F01D48142704707D711F5000F58BFA1
:1007F00010F5000F15D481427047894270471CF5EF
:10080000000F04D5BCF5000FF7D5884270474FF0B4
:10081000807C1CEB410F38BF1CEB400F01D288429B
:10082000704780EA010081EA000180EA0100FFF7D9
:100830007EBF0000540800000000001014000000FB
:10084000000100006808000014000010AC02000065
:100850001C01000000000000000E27070087930322
:0808600000879303006CDC0229
:04000005000000C532
:00000001FF
